02A20090615090350000000001                                                                                                                                                                                                          
D11011000002P,00000000000100000019890604MFANGEL                   CARTER                   M013a@a.com                                                     AUSTIN              TX1234523531234567890N0010123456789012345            
02T20090615090350000000001                                                                                                                                                                                                          
